:1000000068C097C681C080C07FC07EC07DC07CC0F4
:100010007BC07AC079C078C077C076C075C074C024
:1000200073C072C071C070C06FC06EC06DC06CC054
:100030006BC06AC0120101010000000881179A0A12
:100040000201010203010A033100300030003000D8
:1000500005010905A1010901A100050109300931C6
:10006000150026FF00750895028102C005091901D7
:10007000291015002501750195108102C009022281
:1000800000010100803209040000010300000009A2
:1000900021010100012200000705810308000A0474
:1000A000030904180372006100700068006E0065A7
:1000B0000074002E006E006500740016034E0049A7
:1000C000004E005F00360034005F005500530042D0
:1000D000000011241FBECFEFD4E0DEBFCDBF11E082
:1000E000A0E0B1E0ECEBF0E102C005900D92A2338C
:1000F000B107D9F711E0A2E3B1E001C01D92A63922
:10010000B107E1F782D2D8C77BCF82E190E00895B2
:10011000009741F0DC01E3E3F1E088E001900D920B
:100120008150E1F7ABE3B1E0E3E3F1E088E0019077
:100130000D928150E1F7089580911401909115017D
:10014000009731F0109215011092140181E008958A
:1001500083E391E06BE371E048E050E0A0D70895BD
:100160000F931F93DF93CF93CDB7DEB7C954D04021
:100170000FB6F894DEBF0FBECDBF80E027D3FE01DF
:10018000399680E0EF93FF9300E810E41023A9F084
:1001900000003D9A00000000000000000000000088
:1001A00000000000000000003D9838E03A95F1F7AB
:1001B00000000000069561F0E8CF3D9A3BE03A95DB
:1001C000F1F700003D9800000000069509F0DDCF32
:1001D0003D9800E813E01023A9F000003D9A0000CC
:1001E000000000000000000000000000000000000F
:1001F00000003D9838E03A95F1F7000000000695C0
:1002000061F0E8CF3D9A3BE03A95F1F700003D9868
:1002100000000000069509F0DDCF3D9800E8182F9A
:100220001023A9F000003D9A00000000000000002B
:100230000000000000000000000000003D9838E0D1
:100240003A95F1F700000000069561F0E8CF3D9A7D
:100250003BE03A95F1F700003D980000000006955C
:1002600009F0DDCF3D9800000000000000003D9A3D
:1002700000000000000000003D9816B11072E9F384
:1002800030E40FE30A9529F116B11072D9F72998D5
:10029000000000000000000000000000000000005E
:1002A000000000000000000000000000000026B177
:1002B000299A207221933A9539F00FE30A9549F073
:1002C00026B12072F1F6FACF882705C0299A832F2C
:1002D00002C088278095FF91EF9129988F3F21F4E4
:1002E00081E0809332011BC19E012F5F3F4F88E068
:1002F000D9011D928A95E9F7698180E090E020E8B4
:1003000030E0DC015096AE0FBF1F4C91442341F00A
:10031000A901082E02C0559547950A94E2F701C03D
:1003200040E0642B01968830910559F76983AA81D2
:1003300080E090E0AE01475F5F4F20E830E0FC01D5
:100340007896E40FF51F6081662341F0B901082E0D
:1003500002C0759567950A94E2F701C060E0A62B8C
:1003600001968830910559F7A095AA83AB8180E06A
:1003700090E0AE01475F5F4F20E830E0FC01B096AF
:10038000E40FF51F6081662341F0B901082E02C019
:10039000759567950A94E2F701C060E0A62B019677
:1003A0008830910559F7AB83AC8180E090E0AE01D5
:1003B000475F5F4F20E830E0FC01B896E40FF51F7F
:1003C0006081662341F4B901082E02C075956795D6
:1003D0000A94E2F701C060E0A62B019688309105EF
:1003E00059F7AC83AD8180E090E0AE01475F5F4F8D
:1003F00020E830E0FC01F096E40FF51F60816623F1
:1004000041F0B901082E02C0759567950A94E2F78C
:1004100001C060E0A62B01968830910559F7A095A0
:10042000AD83AE8180E090E0AE01475F5F4F20E892
:1004300030E0FC01F896E40FF51F6081662341F07F
:10044000B901082E02C0759567950A94E2F701C0BC
:1004500060E0A62B01968830910559F7A095AE83F0
:10046000AF8180E090E0AE01475F5F4F21E030E078
:10047000FC013396E40FF51F6081662341F0B9015A
:10048000082E02C0660F771F0A94E2F701C060E0F1
:10049000A62B01968530910559F78A89882311F09A
:1004A00030E201C030E03A2B8B89882311F080E4E0
:1004B00001C080E0382B8C89882311F080E801C0CE
:1004C00080E0382B3F838D8991E0882309F490E008
:1004D0008885892B9E89992311F022E001C020E0B4
:1004E000282B8F89882311F094E001C090E0292BFC
:1004F000888D882311F098E001C090E0292B28878F
:10050000FE013196A3E3B1E0CE01079641914D93F0
:10051000E817F907D9F73093390120933A01C75BFF
:10052000DF4F0FB6F894DEBF0FBECDBFCF91DF9186
:100530001F910F9108951092320112DE81E0909187
:100540003201911180E008951F931FB7F894219A0A
:1005500029983D98459804DE1FBF1F91089580E5B6
:1005600090E090930501809304018FD29093030152
:100570008093020180E091E0089517B88FEF88B969
:1005800088EF8BB985E08AB9E7EEF0E83197F1F7AB
:1005900000C000001AB885BD87E08093B10082E0FA
:1005A0008093B00084EC8093B3000895FC0186E44E
:1005B00091E090938E0180938D01208120762032EE
:1005C00001F52181213071F4E0914301F091440162
:1005D0000088F189E02D0995E0914301F0914401F3
:1005E00080810895223041F485E491E090938E015A
:1005F00080938D0181E008952A3029F483818093CE
:10060000450180E0089580E00895EF92FF920F93F6
:100610001F93DF93CF930F92CDB7DEB7AEDF27D214
:100620009093440180934301DC011A96ED91FC9173
:100630001B970995E0914301F09144010288F389E9
:10064000E02D0995882351F48FE399E1A1E08150D1
:100650009040A040E1F700C00000E1CFE0914301ED
:10066000F091440184819581909395018093940148
:10067000828180937B0184E390E090937D0180935D
:100680007C0143DD8093910178DFE0914301F0919B
:1006900044010284F385E02D09952FE088E190E084
:1006A0000FB6F894A895809360000FBE2093600069
:1006B00032D3789410E081E0EE24FF24F39402E03A
:1006C00003C0EE24E39480E0A89589830DD289814C
:1006D000882341F0E0914301F09144010484F585C1
:1006E000E02D0995A89B0CC0F5BA8091450188239F
:1006F00039F0153010F0155003C0182FEE24E39494
:10070000B99B16C007BBEE20A9F4E0914301F0911C
:1007100044010484F585E02D0995E0914301F091B1
:1007200044010684F785E02D0995882319F4CBCF81
:10073000EE2049F280912E018F3F19F6E09143019E
:10074000F09144010088F189E02D86E491E009955B
:10075000E0914301F091440186E491E0608198D1F9
:10076000EE24B1CF009769F020914F0130915001F4
:100770004091510150915201FC0120833183428309
:10078000538380914F0190915001A0915101B091FC
:1007900052018093530190935401A0935501B0935B
:1007A0005601089580912A0190912B01009731F014
:1007B00010922B0110922A0181E008958FE491E0BC
:1007C00063E571E044E050E06AD408950F931F930D
:1007D000DF93CF93CDB7DEB7C154D0400FB6F894B6
:1007E000DEBF0FBECDBFFE013196EF93FF9300E851
:1007F000182F1023A9F000003D9A0000000000000F
:1008000000000000000000000000000000003D9813
:1008100038E03A95F1F700000000069561F0E8CF66
:100820003D9A3BE03A95F1F700003D98000000004A
:10083000069509F0DDCF3D980000000000000000A3
:10084000000000000000000000003D9A00000000D1
:10085000000000003D9830E20FEF0A9529F116B133
:100860001072D9F729980000000000000000000075
:100870000000000000000000000000000000000078
:100880000000000026B1299A207221933A9539F090
:100890000FEF0A9549F026B12072F1F6FACF8827BA
:1008A00005C0299A832F02C088278095FF91EF9178
:1008B00029988F3F21F481E080934E01A5C060E02C
:1008C00080E090E021E030E0DF01A80FB91F4C91FB
:1008D000442341F0A901082E02C0440F551F0A9479
:1008E000E2F701C040E0642B01968430910561F786
:1008F0008D85882311F020E101C020E0622B8E85D8
:10090000882311F020E201C020E0262B8F85882368
:1009100011F090E401C090E0922B8889882311F0B7
:1009200080E801C080E0082F092B9B8581E0992396
:1009300009F480E09C85992311F410E001C012E0D5
:10094000182BB0E080E090E0AE014F5F5F4F20E8F1
:1009500030E0FC017096E40FF51F6081662341F0E2
:10096000B901082E02C0759567950A94E2F701C097
:1009700060E0B62B01968830910559F7A0E080E041
:1009800090E0AE014F5F5F4F20E830E0FC017896C9
:10099000E40FF51F6081662341F0B901082E02C003
:1009A000759567950A94E2F701C060E0A62B019661
:1009B0008830910559F7B158B0934F018FE78A1BE2
:1009C0008093500100935101109352018D8188232F
:1009D00019F01460109352018E81882329F08091C0
:1009E00052018860809352018F81882329F0809181
:1009F00052018061809352018885882329F080917B
:100A00005201806280935201CF5BDF4F0FB6F894A2
:100A1000DEBF0FBECDBFCF91DF911F910F91089523
:100A200081E0D4DE08951F931FE08FE399E1A1E0F8
:100A300081509040A040E1F700C0000010924E01AC
:100A4000EFDF80914E01882321F0115071F780E093
:100A500001C081E01F9108951F931FB7F894219A58
:100A600029983D984598DCDF1FBF1F91089580E5C8
:100A700090E090931B0180931A0107D09093190185
:100A80008093180186E191E008958DE290E0089549
:100A90001F93162F693008F018E030916E0130FF77
:100AA00002C023EC01C02BE440912E0147FF04C09B
:100AB0003F5F30936E0103C03FEF30932E012093D0
:100AC0007F01DC01812FE0E8F1E003C09D9191936B
:100AD00081508823D9F780E891E0612FDCD21C5F38
:100AE00010932E011F9108950F931F9390918F01E2
:100AF000992309F4A2C0935097FD9DC027E531E0EA
:100B000080917E018F5F40918C014D3209F08DC044
:100B1000983009F08AC0E82FF32F9081907609F081
:100B200080C0109279018181882339F410927A0172
:100B300029E731E090E882E068C0853021F48281C5
:100B4000809390015EC0863091F58381813039F4C5
:100B50008091910120917C0130917D0126C08230ED
:100B6000A9F18330C1F482818823A9F1813029F46D
:100B700023EA30E090EC88E148C0823029F42BEB86
:100B800030E090EC86E141C0833079F526E430E036
:100B900090EC8AE03AC0813219F1823231F58091CD
:100BA0007B01209194013091950190EC2EC088300A
:100BB00001F1893021F482818093930122C08A302F
:100BC000D9F08B30F1F410926E011BC02DE730E0AC
:100BD00090EC82E21AC02FE930E090EC84E015C07E
:100BE0002FE830E090EC89E010C029E731E090EC8C
:100BF0000BC023E931E002C029E731E090E881E051
:100C000004C029E731E090E880E030938E01209322
:100C10008D012781222359F42681281740F4822F41
:100C200006C0932FC3DC90E802C090E880E0909368
:100C30006F0180932C0110928F0180912C018F3FC6
:100C400009F44FC090912D0197FF4BC0182F8930A8
:100C500008F018E0811B80932C0120916F0120FF88
:100C600002C003EC01C00BE42F5F20936F01809161
:100C70008D0190918E0126FD05C0DC01212FE1E759
:100C8000F1E018C030917B01A1E7B1E0212FFC0118
:100C90000BC0449150E0E639F50711F43C9301C0D4
:100CA0004C93319621501196222399F705C03D911E
:100CB000319321502223D9F7810F911D90938E01FA
:100CC00080938D0181E791E0612FE5D1812F8C5FC9
:100CD000183019F09FEF90932C01009370018093CE
:100CE0002D0189B1857019F010926D0111C08091AC
:100CF0006D01882369F484E699B1957049F48150B7
:100D0000D9F781E080936D011092900110928B01D0
:100D10001F910F91089587E591E080938A010B96CA
:100D200080937E01E9E6F0E0808183608083E89A29
:100D300008950F930FB70F93489BFECF489B06C0B3
:100D4000489B04C0489B02C0000000C01F933F9313
:100D50002F9331E014E009B1102710FD32E0102F7D
:100D60003A95C9F700FDE7C009B1102717952FE79D
:100D70002795DF9319B1012707952795CF93C09148
:100D80008A0109B11027179527953BE0D1E04F93D1
:100D900019B10127079527954FEF000055C0489BD3
:100DA000FECF489B06C0489B04C0489B02C0000081
:100DB00000C0DF9100C0CDCF19B1157079F1407C32
:100DC0002C6F13C009B1057049F141782C6F15C023
:100DD000057021F1102F2C6F09B119C009B10570F0
:100DE000E9F04E7F2C6F18C038F309B10570B1F0EF
:100DF000102717952795243028F319B10127079557
:100E00002795422749934FEF09B1243008F3102763
:100E100017952795243010F319B11570E1F10127CA
:100E2000079527952430F0F009B10570A1F110273E
:100E3000179527952430E0F019B1012707952795DC
:100E40003A9541F12430D0F009B1057021F1102715
:100E5000179527952430C0F019B1012707952795DC
:100E60002430C2CF19B11570B1F04C7F2C6FDCCF9C
:100E700009B1057081F0487F2C6FDECF19B1157074
:100E800051F0407F2C6FE0CF09B1057021F0407E1A
:100E90002C6FE2CF3DC03C2FC0918A013C1B01E08A
:100EA00033300CBBA8F108811981412F1F772091A5
:100EB0008B010D3289F1013E79F10936C1F00777D6
:100EC000033431F510919201112311F100918F013A
:100ED0000030D1F53430DAF130938F0110938C016A
:100EE00000917E01C0937E0100938A0130C01217E9
:100EF00079F447FD3AC030912D013F3F29F10FEFC2
:100F000000932D01C0E7D1E025C000270093920196
:100F10004F91CF91DF910FC01217B9F70093920153
:100F20000FEF00932C0100932D014F91CF910CB343
:100F300000FD35CFDF9101E00CBB2F913F911F9158
:100F40000F910FBF0F911895C0E3D1E002C0CFE21F
:100F5000D1E032E05F930BB10A7F01600BB955E03D
:100F60001AB115601AB920E819C030912E013F3F1F
:100F700059F30FEF00932E01CFE7D1E0EBCF052718
:100F800010E00BB910C0052710E008940BB913C08E
:100F9000052710E015C0052710E019C020FF052720
:100FA0000BB9279517951C3F50F720FF052727956C
:100FB0000BB917951C3F38F720FF05272795179584
:100FC0000BB91C3F28F720FF0527279517951C3FD5
:100FD0000BB908F700C0499120FF05270BB92795E9
:100FE00017951C3F80F520FF052727950BB917950E
:100FF0001C3F68F520FF0527279517950BB91C3F67
:1010000058F520FF0527279517951C3F0BB938F594
:10101000242F3A9519F60A7F5F910BB932E03A9581
:10102000F1F710919001C253D14011F010938B0150
:1010300001601AB11A7F0BB90A7F4F91CF911AB98B
:101040000BB9DF9178CF052710E00BB9CACF052780
:1010500010E008940BB9CDCF052710E0CFCF0527BE
:1010600010E0D3CFA82FB92F8FEF9FEF41E050EAC8
:10107000615070F02D9138E0722F78279695879502
:10108000269570FF02C0842795273A95A9F7F0CFDF
:10109000809590950895E6DF8D939D930895FB01CB
:1010A000DC0104C08D910190801921F44150504021
:0C10B000C8F7881B990B0895F894FFCF37
:1010BC0008000000000000000000A402B0009C002A
:1010CC0088009B02010004000000000000000000EA
:1010DC002C051005D203B20313050100FFFFFFD24C
:0210EC005A00A8
:00000001FF
